{
  "contractName": "Moloch",
  "abi": [
    {
      "constant": true,
      "inputs": [],
      "name": "processingReward",
      "outputs": [
        {
          "name": "",
          "type": "uint256"
        }
      ],
      "payable": false,
      "stateMutability": "view",
      "type": "function"
    },
    {
      "constant": true,
      "inputs": [
        {
          "name": "",
          "type": "address"
        }
      ],
      "name": "members",
      "outputs": [
        {
          "name": "delegateKey",
          "type": "address"
        },
        {
          "name": "shares",
          "type": "uint256"
        },
        {
          "name": "delegatedShares",
          "type": "uint256"
        },
        {
          "name": "exists",
          "type": "bool"
        },
        {
          "name": "highestIndexYesVote",
          "type": "uint256"
        }
      ],
      "payable": false,
      "stateMutability": "view",
      "type": "function"
    },
    {
      "constant": true,
      "inputs": [],
      "name": "totalSharesRequested",
      "outputs": [
        {
          "name": "",
          "type": "uint256"
        }
      ],
      "payable": false,
      "stateMutability": "view",
      "type": "function"
    },
    {
      "constant": true,
      "inputs": [],
      "name": "totalShares",
      "outputs": [
        {
          "name": "",
          "type": "uint256"
        }
      ],
      "payable": false,
      "stateMutability": "view",
      "type": "function"
    },
    {
      "constant": true,
      "inputs": [
        {
          "name": "",
          "type": "uint256"
        }
      ],
      "name": "proposalQueue",
      "outputs": [
        {
          "name": "proposer",
          "type": "address"
        },
        {
          "name": "applicant",
          "type": "address"
        },
        {
          "name": "sharesRequested",
          "type": "uint256"
        },
        {
          "name": "startingPeriod",
          "type": "uint256"
        },
        {
          "name": "yesVotes",
          "type": "uint256"
        },
        {
          "name": "noVotes",
          "type": "uint256"
        },
        {
          "name": "processed",
          "type": "bool"
        },
        {
          "name": "didPass",
          "type": "bool"
        },
        {
          "name": "aborted",
          "type": "bool"
        },
        {
          "name": "tokenTribute",
          "type": "uint256"
        },
        {
          "name": "details",
          "type": "string"
        },
        {
          "name": "maxTotalSharesAtYesVote",
          "type": "uint256"
        }
      ],
      "payable": false,
      "stateMutability": "view",
      "type": "function"
    },
    {
      "constant": true,
      "inputs": [
        {
          "name": "",
          "type": "address"
        }
      ],
      "name": "memberAddressByDelegateKey",
      "outputs": [
        {
          "name": "",
          "type": "address"
        }
      ],
      "payable": false,
      "stateMutability": "view",
      "type": "function"
    },
    {
      "constant": true,
      "inputs": [],
      "name": "gracePeriodLength",
      "outputs": [
        {
          "name": "",
          "type": "uint256"
        }
      ],
      "payable": false,
      "stateMutability": "view",
      "type": "function"
    },
    {
      "constant": true,
      "inputs": [],
      "name": "abortWindow",
      "outputs": [
        {
          "name": "",
          "type": "uint256"
        }
      ],
      "payable": false,
      "stateMutability": "view",
      "type": "function"
    },
    {
      "constant": true,
      "inputs": [],
      "name": "summoningTime",
      "outputs": [
        {
          "name": "",
          "type": "uint256"
        }
      ],
      "payable": false,
      "stateMutability": "view",
      "type": "function"
    },
    {
      "constant": true,
      "inputs": [],
      "name": "votingPeriodLength",
      "outputs": [
        {
          "name": "",
          "type": "uint256"
        }
      ],
      "payable": false,
      "stateMutability": "view",
      "type": "function"
    },
    {
      "constant": true,
      "inputs": [],
      "name": "proposalDeposit",
      "outputs": [
        {
          "name": "",
          "type": "uint256"
        }
      ],
      "payable": false,
      "stateMutability": "view",
      "type": "function"
    },
    {
      "constant": true,
      "inputs": [],
      "name": "guildBank",
      "outputs": [
        {
          "name": "",
          "type": "address"
        }
      ],
      "payable": false,
      "stateMutability": "view",
      "type": "function"
    },
    {
      "constant": true,
      "inputs": [],
      "name": "dilutionBound",
      "outputs": [
        {
          "name": "",
          "type": "uint256"
        }
      ],
      "payable": false,
      "stateMutability": "view",
      "type": "function"
    },
    {
      "constant": true,
      "inputs": [],
      "name": "periodDuration",
      "outputs": [
        {
          "name": "",
          "type": "uint256"
        }
      ],
      "payable": false,
      "stateMutability": "view",
      "type": "function"
    },
    {
      "constant": true,
      "inputs": [],
      "name": "approvedToken",
      "outputs": [
        {
          "name": "",
          "type": "address"
        }
      ],
      "payable": false,
      "stateMutability": "view",
      "type": "function"
    },
    {
      "inputs": [
        {
          "name": "summoner",
          "type": "address"
        },
        {
          "name": "_approvedToken",
          "type": "address"
        },
        {
          "name": "_periodDuration",
          "type": "uint256"
        },
        {
          "name": "_votingPeriodLength",
          "type": "uint256"
        },
        {
          "name": "_gracePeriodLength",
          "type": "uint256"
        },
        {
          "name": "_abortWindow",
          "type": "uint256"
        },
        {
          "name": "_proposalDeposit",
          "type": "uint256"
        },
        {
          "name": "_dilutionBound",
          "type": "uint256"
        },
        {
          "name": "_processingReward",
          "type": "uint256"
        }
      ],
      "payable": false,
      "stateMutability": "nonpayable",
      "type": "constructor"
    },
    {
      "anonymous": false,
      "inputs": [
        {
          "indexed": false,
          "name": "proposalIndex",
          "type": "uint256"
        },
        {
          "indexed": true,
          "name": "delegateKey",
          "type": "address"
        },
        {
          "indexed": true,
          "name": "memberAddress",
          "type": "address"
        },
        {
          "indexed": true,
          "name": "applicant",
          "type": "address"
        },
        {
          "indexed": false,
          "name": "tokenTribute",
          "type": "uint256"
        },
        {
          "indexed": false,
          "name": "sharesRequested",
          "type": "uint256"
        }
      ],
      "name": "SubmitProposal",
      "type": "event"
    },
    {
      "anonymous": false,
      "inputs": [
        {
          "indexed": true,
          "name": "proposalIndex",
          "type": "uint256"
        },
        {
          "indexed": true,
          "name": "delegateKey",
          "type": "address"
        },
        {
          "indexed": true,
          "name": "memberAddress",
          "type": "address"
        },
        {
          "indexed": false,
          "name": "uintVote",
          "type": "uint8"
        }
      ],
      "name": "SubmitVote",
      "type": "event"
    },
    {
      "anonymous": false,
      "inputs": [
        {
          "indexed": true,
          "name": "proposalIndex",
          "type": "uint256"
        },
        {
          "indexed": true,
          "name": "applicant",
          "type": "address"
        },
        {
          "indexed": true,
          "name": "memberAddress",
          "type": "address"
        },
        {
          "indexed": false,
          "name": "tokenTribute",
          "type": "uint256"
        },
        {
          "indexed": false,
          "name": "sharesRequested",
          "type": "uint256"
        },
        {
          "indexed": false,
          "name": "didPass",
          "type": "bool"
        }
      ],
      "name": "ProcessProposal",
      "type": "event"
    },
    {
      "anonymous": false,
      "inputs": [
        {
          "indexed": true,
          "name": "memberAddress",
          "type": "address"
        },
        {
          "indexed": false,
          "name": "sharesToBurn",
          "type": "uint256"
        }
      ],
      "name": "Ragequit",
      "type": "event"
    },
    {
      "anonymous": false,
      "inputs": [
        {
          "indexed": true,
          "name": "proposalIndex",
          "type": "uint256"
        },
        {
          "indexed": false,
          "name": "applicantAddress",
          "type": "address"
        }
      ],
      "name": "Abort",
      "type": "event"
    },
    {
      "anonymous": false,
      "inputs": [
        {
          "indexed": true,
          "name": "memberAddress",
          "type": "address"
        },
        {
          "indexed": false,
          "name": "newDelegateKey",
          "type": "address"
        }
      ],
      "name": "UpdateDelegateKey",
      "type": "event"
    },
    {
      "anonymous": false,
      "inputs": [
        {
          "indexed": true,
          "name": "summoner",
          "type": "address"
        },
        {
          "indexed": false,
          "name": "shares",
          "type": "uint256"
        }
      ],
      "name": "SummonComplete",
      "type": "event"
    },
    {
      "anonymous": false,
      "inputs": [
        {
          "indexed": true,
          "name": "from",
          "type": "address"
        },
        {
          "indexed": true,
          "name": "to",
          "type": "address"
        },
        {
          "indexed": false,
          "name": "amount",
          "type": "uint256"
        }
      ],
      "name": "SharesDelegated",
      "type": "event"
    },
    {
      "anonymous": false,
      "inputs": [
        {
          "indexed": true,
          "name": "from",
          "type": "address"
        },
        {
          "indexed": true,
          "name": "to",
          "type": "address"
        },
        {
          "indexed": false,
          "name": "amount",
          "type": "uint256"
        }
      ],
      "name": "SharesRetrieved",
      "type": "event"
    },
    {
      "constant": false,
      "inputs": [
        {
          "name": "applicant",
          "type": "address"
        },
        {
          "name": "tokenTribute",
          "type": "uint256"
        },
        {
          "name": "sharesRequested",
          "type": "uint256"
        },
        {
          "name": "details",
          "type": "string"
        }
      ],
      "name": "submitProposal",
      "outputs": [],
      "payable": false,
      "stateMutability": "nonpayable",
      "type": "function"
    },
    {
      "constant": false,
      "inputs": [
        {
          "name": "proposalIndex",
          "type": "uint256"
        },
        {
          "name": "uintVote",
          "type": "uint8"
        }
      ],
      "name": "submitVote",
      "outputs": [],
      "payable": false,
      "stateMutability": "nonpayable",
      "type": "function"
    },
    {
      "constant": false,
      "inputs": [
        {
          "name": "proposalIndex",
          "type": "uint256"
        }
      ],
      "name": "processProposal",
      "outputs": [],
      "payable": false,
      "stateMutability": "nonpayable",
      "type": "function"
    },
    {
      "constant": false,
      "inputs": [
        {
          "name": "sharesToBurn",
          "type": "uint256"
        }
      ],
      "name": "ragequit",
      "outputs": [],
      "payable": false,
      "stateMutability": "nonpayable",
      "type": "function"
    },
    {
      "constant": false,
      "inputs": [
        {
          "name": "proposalIndex",
          "type": "uint256"
        }
      ],
      "name": "abort",
      "outputs": [],
      "payable": false,
      "stateMutability": "nonpayable",
      "type": "function"
    },
    {
      "constant": false,
      "inputs": [
        {
          "name": "newDelegateKey",
          "type": "address"
        }
      ],
      "name": "updateDelegateKey",
      "outputs": [],
      "payable": false,
      "stateMutability": "nonpayable",
      "type": "function"
    },
    {
      "constant": false,
      "inputs": [
        {
          "name": "delegateTo",
          "type": "address"
        },
        {
          "name": "sharesToDelegate",
          "type": "uint256"
        }
      ],
      "name": "delegateShares",
      "outputs": [],
      "payable": false,
      "stateMutability": "nonpayable",
      "type": "function"
    },
    {
      "constant": false,
      "inputs": [
        {
          "name": "retrieveFrom",
          "type": "address"
        },
        {
          "name": "sharesToRetrieve",
          "type": "uint256"
        }
      ],
      "name": "retrieveShares",
      "outputs": [],
      "payable": false,
      "stateMutability": "nonpayable",
      "type": "function"
    },
    {
      "constant": true,
      "inputs": [],
      "name": "getCurrentPeriod",
      "outputs": [
        {
          "name": "",
          "type": "uint256"
        }
      ],
      "payable": false,
      "stateMutability": "view",
      "type": "function"
    },
    {
      "constant": true,
      "inputs": [],
      "name": "getProposalQueueLength",
      "outputs": [
        {
          "name": "",
          "type": "uint256"
        }
      ],
      "payable": false,
      "stateMutability": "view",
      "type": "function"
    },
    {
      "constant": true,
      "inputs": [
        {
          "name": "highestIndexYesVote",
          "type": "uint256"
        }
      ],
      "name": "canRagequit",
      "outputs": [
        {
          "name": "",
          "type": "bool"
        }
      ],
      "payable": false,
      "stateMutability": "view",
      "type": "function"
    },
    {
      "constant": true,
      "inputs": [
        {
          "name": "startingPeriod",
          "type": "uint256"
        }
      ],
      "name": "hasVotingPeriodExpired",
      "outputs": [
        {
          "name": "",
          "type": "bool"
        }
      ],
      "payable": false,
      "stateMutability": "view",
      "type": "function"
    },
    {
      "constant": true,
      "inputs": [
        {
          "name": "memberAddress",
          "type": "address"
        },
        {
          "name": "proposalIndex",
          "type": "uint256"
        }
      ],
      "name": "getMemberProposalVote",
      "outputs": [
        {
          "name": "",
          "type": "uint8"
        }
      ],
      "payable": false,
      "stateMutability": "view",
      "type": "function"
    }
  ],
  "bytecode": "0x60806040526000600a556000600b553480156200001b57600080fd5b506040516101208062005d1b83398101806040526101208110156200003f57600080fd5b81019080805190602001909291908051906020019092919080519060200190929190805190602001909291908051906020019092919080519060200190929190805190602001909291908051906020019092919080519060200190929190505050600073ffffffffffffffffffffffffffffffffffffffff168973ffffffffffffffffffffffffffffffffffffffff16141515156200012a576040517f08c379a000000000000000000000000000000000000000000000000000000000815260040180806020018281038252602a81526020018062005ae6602a913960400191505060405180910390fd5b600073ffffffffffffffffffffffffffffffffffffffff168873ffffffffffffffffffffffffffffffffffffffff1614151515620001b4576040517f08c379a000000000000000000000000000000000000000000000000000000000815260040180806020018281038252603081526020018062005cbb6030913960400191505060405180910390fd5b60008711151562000211576040517f08c379a000000000000000000000000000000000000000000000000000000000815260040180806020018281038252603181526020018062005c8a6031913960400191505060405180910390fd5b6000861115156200026e576040517f08c379a000000000000000000000000000000000000000000000000000000000815260040180806020018281038252603581526020018062005c556035913960400191505060405180910390fd5b670de0b6b3a76400008611151515620002d3576040517f08c379a000000000000000000000000000000000000000000000000000000000815260040180806020018281038252603781526020018062005b106037913960400191505060405180910390fd5b670de0b6b3a7640000851115151562000338576040517f08c379a000000000000000000000000000000000000000000000000000000000815260040180806020018281038252603681526020018062005c1f6036913960400191505060405180910390fd5b60008411151562000395576040517f08c379a000000000000000000000000000000000000000000000000000000000815260040180806020018281038252602e81526020018062005ab8602e913960400191505060405180910390fd5b858411151515620003f2576040517f08c379a000000000000000000000000000000000000000000000000000000000815260040180806020018281038252605781526020018062005bc86057913960600191505060405180910390fd5b6000821115156200044f576040517f08c379a000000000000000000000000000000000000000000000000000000000815260040180806020018281038252603081526020018062005ceb6030913960400191505060405180910390fd5b670de0b6b3a76400008211151515620004b4576040517f08c379a000000000000000000000000000000000000000000000000000000000815260040180806020018281038252603281526020018062005b966032913960400191505060405180910390fd5b80831015151562000511576040517f08c379a000000000000000000000000000000000000000000000000000000000815260040180806020018281038252604f81526020018062005b47604f913960600191505060405180910390fd5b87600860006101000a81548173ffffffffffffffffffffffffffffffffffffffff021916908373ffffffffffffffffffffffffffffffffffffffff1602179055508760405162000561906200081c565b808273ffffffffffffffffffffffffffffffffffffffff1673ffffffffffffffffffffffffffffffffffffffff168152602001915050604051809103906000f080158015620005b4573d6000803e3d6000fd5b50600960006101000a81548173ffffffffffffffffffffffffffffffffffffffff021916908373ffffffffffffffffffffffffffffffffffffffff160217905550866000819055508560018190555084600281905550836003819055508260048190555081600581905550806006819055504260078190555060a0604051908101604052808a73ffffffffffffffffffffffffffffffffffffffff16815260200160018152602001600081526020016001151581526020016000815250600c60008b73ffffffffffffffffffffffffffffffffffffffff1673ffffffffffffffffffffffffffffffffffffffff16815260200190815260200160002060008201518160000160006101000a81548173ffffffffffffffffffffffffffffffffffffffff021916908373ffffffffffffffffffffffffffffffffffffffff160217905550602082015181600101556040820151816002015560608201518160030160006101000a81548160ff0219169083151502179055506080820151816004015590505088600d60008b73ffffffffffffffffffffffffffffffffffffffff1673ffffffffffffffffffffffffffffffffffffffff16815260200190815260200160002060006101000a81548173ffffffffffffffffffffffffffffffffffffffff021916908373ffffffffffffffffffffffffffffffffffffffff1602179055506001600a819055508873ffffffffffffffffffffffffffffffffffffffff167f03995a801b13c36325306deef859ef977ce61c6e15a794281bf969d20482522760016040518082815260200191505060405180910390a25050505050505050506200082a565b6108f680620051c283390190565b614988806200083a6000396000f3fe608060405234801561001057600080fd5b50600436106101e1576000357c0100000000000000000000000000000000000000000000000000000000900480637d5b6c7211610116578063a3dc3800116100b4578063b470aade1161008e578063b470aade1461092e578063bab462591461094c578063e50701f414610996578063e63bc62d146109c4576101e1565b8063a3dc380014610880578063a42afd29146108c6578063afe5475f14610910576101e1565b80638b15a605116100f05780638b15a605146106f25780639425a47614610710578063962006c31461075657806399653fbe14610845576101e1565b80637d5b6c72146106885780638340bbce146106a65780638436593f146106c4576101e1565b80633a98ef39116101835780635ef93c401161015d5780635ef93c40146105e057806363858f2d1461062e5780637896ddaf1461064c578063797daf701461066a576101e1565b80633a98ef39146103e65780633b214a7414610404578063402c17941461055c576101e1565b806308ae4b0c116101bf57806308ae4b0c1461029257806311ff5f7b146103365780631a396a4a146103845780632582bf2a146103a2576101e1565b806303e32fa1146101e6578063044a0ca814610204578063086146d214610274575b600080fd5b6101ee6109f2565b6040518082815260200191505060405180910390f35b6102506004803603604081101561021a57600080fd5b81019080803573ffffffffffffffffffffffffffffffffffffffff169060200190929190803590602001909291905050506109f8565b6040518082600281111561026057fe5b60ff16815260200191505060405180910390f35b61027c610b73565b6040518082815260200191505060405180910390f35b6102d4600480360360208110156102a857600080fd5b81019080803573ffffffffffffffffffffffffffffffffffffffff169060200190929190505050610ba3565b604051808673ffffffffffffffffffffffffffffffffffffffff1673ffffffffffffffffffffffffffffffffffffffff168152602001858152602001848152602001831515151581526020018281526020019550505050505060405180910390f35b6103826004803603604081101561034c57600080fd5b81019080803573ffffffffffffffffffffffffffffffffffffffff16906020019092919080359060200190929190505050610c06565b005b61038c610e17565b6040518082815260200191505060405180910390f35b6103e4600480360360208110156103b857600080fd5b81019080803573ffffffffffffffffffffffffffffffffffffffff169060200190929190505050610e1d565b005b6103ee61134c565b6040518082815260200191505060405180910390f35b6104306004803603602081101561041a57600080fd5b8101908080359060200190929190505050611352565b604051808d73ffffffffffffffffffffffffffffffffffffffff1673ffffffffffffffffffffffffffffffffffffffff1681526020018c73ffffffffffffffffffffffffffffffffffffffff1673ffffffffffffffffffffffffffffffffffffffff1681526020018b81526020018a815260200189815260200188815260200187151515158152602001861515151581526020018515151515815260200184815260200180602001838152602001828103825284818151815260200191508051906020019080838360005b838110156105165780820151818401526020810190506104fb565b50505050905090810190601f1680156105435780820380516001836020036101000a031916815260200191505b509d505050505050505050505050505060405180910390f35b61059e6004803603602081101561057257600080fd5b81019080803573ffffffffffffffffffffffffffffffffffffffff1690602001909291905050506114c0565b604051808273ffffffffffffffffffffffffffffffffffffffff1673ffffffffffffffffffffffffffffffffffffffff16815260200191505060405180910390f35b61062c600480360360408110156105f657600080fd5b81019080803573ffffffffffffffffffffffffffffffffffffffff169060200190929190803590602001909291905050506114f3565b005b6106366117a1565b6040518082815260200191505060405180910390f35b6106546117a7565b6040518082815260200191505060405180910390f35b6106726117ad565b6040518082815260200191505060405180910390f35b6106906117ba565b6040518082815260200191505060405180910390f35b6106ae6117c0565b6040518082815260200191505060405180910390f35b6106f0600480360360208110156106da57600080fd5b81019080803590602001909291905050506117c6565b005b6106fa611b5c565b6040518082815260200191505060405180910390f35b61073c6004803603602081101561072657600080fd5b8101908080359060200190929190505050611b62565b604051808215151515815260200191505060405180910390f35b6108436004803603608081101561076c57600080fd5b81019080803573ffffffffffffffffffffffffffffffffffffffff1690602001909291908035906020019092919080359060200190929190803590602001906401000000008111156107bd57600080fd5b8201836020820111156107cf57600080fd5b803590602001918460018302840111640100000000831117156107f157600080fd5b91908080601f016020809104026020016040519081016040528093929190818152602001838380828437600081840152601f19601f820116905080830192505050505050509192919290505050611b8a565b005b61087e6004803603604081101561085b57600080fd5b8101908080359060200190929190803560ff169060200190929190505050612469565b005b6108ac6004803603602081101561089657600080fd5b8101908080359060200190929190505050612b18565b604051808215151515815260200191505060405180910390f35b6108ce612bae565b604051808273ffffffffffffffffffffffffffffffffffffffff1673ffffffffffffffffffffffffffffffffffffffff16815260200191505060405180910390f35b610918612bd4565b6040518082815260200191505060405180910390f35b610936612bda565b6040518082815260200191505060405180910390f35b610954612be0565b604051808273ffffffffffffffffffffffffffffffffffffffff1673ffffffffffffffffffffffffffffffffffffffff16815260200191505060405180910390f35b6109c2600480360360208110156109ac57600080fd5b8101908080359060200190929190505050612c06565b005b6109f0600480360360208110156109da57600080fd5b8101908080359060200190929190505050613027565b005b60065481565b6000600c60008473ffffffffffffffffffffffffffffffffffffffff1673ffffffffffffffffffffffffffffffffffffffff16815260200190815260200160002060030160009054906101000a900460ff161515610aa1576040517f08c379a00000000000000000000000000000000000000000000000000000000081526004018080602001828103825260348152602001806146326034913960400191505060405180910390fd5b600e8054905082101515610b00576040517f08c379a00000000000000000000000000000000000000000000000000000000081526004018080602001828103825260368152602001806143c96036913960400191505060405180910390fd5b600e82815481101515610b0f57fe5b90600052602060002090600b0201600a0160008473ffffffffffffffffffffffffffffffffffffffff1673ffffffffffffffffffffffffffffffffffffffff16815260200190815260200160002060009054906101000a900460ff16905092915050565b6000610b9e600054610b9060075442613fb590919063ffffffff16565b613fd790919063ffffffff16565b905090565b600c6020528060005260406000206000915090508060000160009054906101000a900473ffffffffffffffffffffffffffffffffffffffff16908060010154908060020154908060030160009054906101000a900460ff16908060040154905085565b6000600c6000600d60003373ffffffffffffffffffffffffffffffffffffffff1673ffffffffffffffffffffffffffffffffffffffff16815260200190815260200160002060009054906101000a900473ffffffffffffffffffffffffffffffffffffffff1673ffffffffffffffffffffffffffffffffffffffff1673ffffffffffffffffffffffffffffffffffffffff16815260200190815260200160002060010154111515610d02576040517f08c379a00000000000000000000000000000000000000000000000000000000081526004018080602001828103825260258152602001806143036025913960400191505060405180910390fd5b610d5781600c60008573ffffffffffffffffffffffffffffffffffffffff1673ffffffffffffffffffffffffffffffffffffffff16815260200190815260200160002060020154613fb590919063ffffffff16565b50610dad81600c60003373ffffffffffffffffffffffffffffffffffffffff1673ffffffffffffffffffffffffffffffffffffffff1681526020019081526020016000206001015461400190919063ffffffff16565b503373ffffffffffffffffffffffffffffffffffffffff168273ffffffffffffffffffffffffffffffffffffffff167fbcad239df6fd9bead94005aa3cd3a1c931cc19d35da4804eec4efd696357c881836040518082815260200191505060405180910390a35050565b600b5481565b6000600c60003373ffffffffffffffffffffffffffffffffffffffff1673ffffffffffffffffffffffffffffffffffffffff16815260200190815260200160002060010154111515610eba576040517f08c379a00000000000000000000000000000000000000000000000000000000081526004018080602001828103825260218152602001806142a56021913960400191505060405180910390fd5b600073ffffffffffffffffffffffffffffffffffffffff168173ffffffffffffffffffffffffffffffffffffffff1614151515610f42576040517f08c379a00000000000000000000000000000000000000000000000000000000081526004018080602001828103825260368152602001806148886036913960400191505060405180910390fd5b3373ffffffffffffffffffffffffffffffffffffffff168173ffffffffffffffffffffffffffffffffffffffff1614151561112757600c60008273ffffffffffffffffffffffffffffffffffffffff1673ffffffffffffffffffffffffffffffffffffffff16815260200190815260200160002060030160009054906101000a900460ff1615151561101f576040517f08c379a000000000000000000000000000000000000000000000000000000000815260040180806020018281038252603b81526020018061426a603b913960400191505060405180910390fd5b600c6000600d60008473ffffffffffffffffffffffffffffffffffffffff1673ffffffffffffffffffffffffffffffffffffffff16815260200190815260200160002060009054906101000a900473ffffffffffffffffffffffffffffffffffffffff1673ffffffffffffffffffffffffffffffffffffffff1673ffffffffffffffffffffffffffffffffffffffff16815260200190815260200160002060030160009054906101000a900460ff16151515611126576040517f08c379a000000000000000000000000000000000000000000000000000000000815260040180806020018281038252604181526020018061475d6041913960600191505060405180910390fd5b5b6000600c60003373ffffffffffffffffffffffffffffffffffffffff1673ffffffffffffffffffffffffffffffffffffffff16815260200190815260200160002090506000600d60008360000160009054906101000a900473ffffffffffffffffffffffffffffffffffffffff1673ffffffffffffffffffffffffffffffffffffffff1673ffffffffffffffffffffffffffffffffffffffff16815260200190815260200160002060006101000a81548173ffffffffffffffffffffffffffffffffffffffff021916908373ffffffffffffffffffffffffffffffffffffffff16021790555033600d60008473ffffffffffffffffffffffffffffffffffffffff1673ffffffffffffffffffffffffffffffffffffffff16815260200190815260200160002060006101000a81548173ffffffffffffffffffffffffffffffffffffffff021916908373ffffffffffffffffffffffffffffffffffffffff160217905550818160000160006101000a81548173ffffffffffffffffffffffffffffffffffffffff021916908373ffffffffffffffffffffffffffffffffffffffff1602179055503373ffffffffffffffffffffffffffffffffffffffff167fde7b64a369e10562cc2e71f0f1f944eaf144b75fead6ecb51fac9c4dd693488583604051808273ffffffffffffffffffffffffffffffffffffffff1673ffffffffffffffffffffffffffffffffffffffff16815260200191505060405180910390a25050565b600a5481565b600e8181548110151561136157fe5b90600052602060002090600b02016000915090508060000160009054906101000a900473ffffffffffffffffffffffffffffffffffffffff16908060010160009054906101000a900473ffffffffffffffffffffffffffffffffffffffff16908060020154908060030154908060040154908060050154908060060160009054906101000a900460ff16908060060160019054906101000a900460ff16908060060160029054906101000a900460ff1690806007015490806008018054600181600116156101000203166002900480601f0160208091040260200160405190810160405280929190818152602001828054600181600116156101000203166002900480156114b05780601f10611485576101008083540402835291602001916114b0565b820191906000526020600020905b81548152906001019060200180831161149357829003601f168201915b505050505090806009015490508c565b600d6020528060005260406000206000915054906101000a900473ffffffffffffffffffffffffffffffffffffffff1681565b6000600c6000600d60003373ffffffffffffffffffffffffffffffffffffffff1673ffffffffffffffffffffffffffffffffffffffff16815260200190815260200160002060009054906101000a900473ffffffffffffffffffffffffffffffffffffffff1673ffffffffffffffffffffffffffffffffffffffff1673ffffffffffffffffffffffffffffffffffffffff168152602001908152602001600020600101541115156115ef576040517f08c379a00000000000000000000000000000000000000000000000000000000081526004018080602001828103825260258152602001806143036025913960400191505060405180910390fd5b600c60003373ffffffffffffffffffffffffffffffffffffffff1673ffffffffffffffffffffffffffffffffffffffff16815260200190815260200160002060010154811115151561168c576040517f08c379a00000000000000000000000000000000000000000000000000000000081526004018080602001828103825260308152602001806145c56030913960400191505060405180910390fd5b6116e181600c60003373ffffffffffffffffffffffffffffffffffffffff1673ffffffffffffffffffffffffffffffffffffffff16815260200190815260200160002060010154613fb590919063ffffffff16565b5061173781600c60008573ffffffffffffffffffffffffffffffffffffffff1673ffffffffffffffffffffffffffffffffffffffff1681526020019081526020016000206002015461400190919063ffffffff16565b508173ffffffffffffffffffffffffffffffffffffffff163373ffffffffffffffffffffffffffffffffffffffff167f3910324db6ad4d1a01d255a52db9af0e9c585462fd924794b7451d4d691ac77b836040518082815260200191505060405180910390a35050565b60025481565b60035481565b6000600e80549050905090565b60075481565b60015481565b6000600c60003373ffffffffffffffffffffffffffffffffffffffff1673ffffffffffffffffffffffffffffffffffffffff16815260200190815260200160002060010154111515611863576040517f08c379a00000000000000000000000000000000000000000000000000000000081526004018080602001828103825260218152602001806142a56021913960400191505060405180910390fd5b6000600a5490506000600c60003373ffffffffffffffffffffffffffffffffffffffff1673ffffffffffffffffffffffffffffffffffffffff16815260200190815260200160002090508281600101541015151561190c576040517f08c379a000000000000000000000000000000000000000000000000000000000815260040180806020018281038252602681526020018061483b6026913960400191505060405180910390fd5b6119198160040154612b18565b1515611970576040517f08c379a000000000000000000000000000000000000000000000000000000000815260040180806020018281038252605e81526020018061453b605e913960600191505060405180910390fd5b611987838260010154613fb590919063ffffffff16565b81600101819055506119a483600a54613fb590919063ffffffff16565b600a81905550600960009054906101000a900473ffffffffffffffffffffffffffffffffffffffff1673ffffffffffffffffffffffffffffffffffffffff1663b5c5f6723385856040518463ffffffff167c0100000000000000000000000000000000000000000000000000000000028152600401808473ffffffffffffffffffffffffffffffffffffffff1673ffffffffffffffffffffffffffffffffffffffff1681526020018381526020018281526020019350505050602060405180830381600087803b158015611a7757600080fd5b505af1158015611a8b573d6000803e3d6000fd5b505050506040513d6020811015611aa157600080fd5b81019080805190602001909291905050501515611b09576040517f08c379a000000000000000000000000000000000000000000000000000000000815260040180806020018281038252603d8152602001806142c6603d913960400191505060405180910390fd5b3373ffffffffffffffffffffffffffffffffffffffff167f667cb7a1818eacd2e3a421e734429ba9c4c7dec85e578e098b6d72cd2bfbf2f6846040518082815260200191505060405180910390a2505050565b60045481565b6000611b796001548361400190919063ffffffff16565b611b81610b73565b10159050919050565b6000600c6000600d60003373ffffffffffffffffffffffffffffffffffffffff1673ffffffffffffffffffffffffffffffffffffffff16815260200190815260200160002060009054906101000a900473ffffffffffffffffffffffffffffffffffffffff1673ffffffffffffffffffffffffffffffffffffffff1673ffffffffffffffffffffffffffffffffffffffff16815260200190815260200160002060010154111515611c86576040517f08c379a00000000000000000000000000000000000000000000000000000000081526004018080602001828103825260258152602001806143036025913960400191505060405180910390fd5b600073ffffffffffffffffffffffffffffffffffffffff168473ffffffffffffffffffffffffffffffffffffffff1614151515611d0e576040517f08c379a000000000000000000000000000000000000000000000000000000000815260040180806020018281038252602e815260200180614462602e913960400191505060405180910390fd5b670de0b6b3a7640000611d4083611d32600b54600a5461400190919063ffffffff16565b61400190919063ffffffff16565b11151515611d99576040517f08c379a00000000000000000000000000000000000000000000000000000000081526004018080602001828103825260328152602001806146a56032913960400191505060405180910390fd5b611dae82600b5461400190919063ffffffff16565b600b819055506000600d60003373ffffffffffffffffffffffffffffffffffffffff1673ffffffffffffffffffffffffffffffffffffffff16815260200190815260200160002060009054906101000a900473ffffffffffffffffffffffffffffffffffffffff169050600860009054906101000a900473ffffffffffffffffffffffffffffffffffffffff1673ffffffffffffffffffffffffffffffffffffffff166323b872dd33306004546040518463ffffffff167c0100000000000000000000000000000000000000000000000000000000028152600401808473ffffffffffffffffffffffffffffffffffffffff1673ffffffffffffffffffffffffffffffffffffffff1681526020018373ffffffffffffffffffffffffffffffffffffffff1673ffffffffffffffffffffffffffffffffffffffff1681526020018281526020019350505050602060405180830381600087803b158015611f1357600080fd5b505af1158015611f27573d6000803e3d6000fd5b505050506040513d6020811015611f3d57600080fd5b81019080805190602001909291905050501515611fa5576040517f08c379a000000000000000000000000000000000000000000000000000000000815260040180806020018281038252603f8152602001806141b4603f913960400191505060405180910390fd5b600860009054906101000a900473ffffffffffffffffffffffffffffffffffffffff1673ffffffffffffffffffffffffffffffffffffffff166323b872dd8630876040518463ffffffff167c0100000000000000000000000000000000000000000000000000000000028152600401808473ffffffffffffffffffffffffffffffffffffffff1673ffffffffffffffffffffffffffffffffffffffff1681526020018373ffffffffffffffffffffffffffffffffffffffff1673ffffffffffffffffffffffffffffffffffffffff1681526020018281526020019350505050602060405180830381600087803b15801561209e57600080fd5b505af11580156120b2573d6000803e3d6000fd5b505050506040513d60208110156120c857600080fd5b81019080805190602001909291905050501515612130576040517f08c379a00000000000000000000000000000000000000000000000000000000081526004018080602001828103825260368152602001806143286036913960400191505060405180910390fd5b60006121a36001612195612142610b73565b6000600e805490501461218d57600e61216a6001600e80549050613fb590919063ffffffff16565b81548110151561217657fe5b90600052602060002090600b020160030154612190565b60005b614022565b61400190919063ffffffff16565b90506121ad61407a565b610180604051908101604052808473ffffffffffffffffffffffffffffffffffffffff1681526020018873ffffffffffffffffffffffffffffffffffffffff168152602001868152602001838152602001600081526020016000815260200160001515815260200160001515815260200160001515815260200187815260200185815260200160008152509050600e819080600181540180825580915050906001820390600052602060002090600b02016000909192909190915060008201518160000160006101000a81548173ffffffffffffffffffffffffffffffffffffffff021916908373ffffffffffffffffffffffffffffffffffffffff16021790555060208201518160010160006101000a81548173ffffffffffffffffffffffffffffffffffffffff021916908373ffffffffffffffffffffffffffffffffffffffff16021790555060408201518160020155606082015181600301556080820151816004015560a0820151816005015560c08201518160060160006101000a81548160ff02191690831515021790555060e08201518160060160016101000a81548160ff0219169083151502179055506101008201518160060160026101000a81548160ff02191690831515021790555061012082015181600701556101408201518160080190805190602001906123a792919061410e565b50610160820151816009015550505060006123d16001600e80549050613fb590919063ffffffff16565b90508773ffffffffffffffffffffffffffffffffffffffff168473ffffffffffffffffffffffffffffffffffffffff163373ffffffffffffffffffffffffffffffffffffffff167f2d105ebbc222c190059b3979356e13469f6a29a350add74ac3bf4f22f16301d6848b8b60405180848152602001838152602001828152602001935050505060405180910390a45050505050505050565b6000600c6000600d60003373ffffffffffffffffffffffffffffffffffffffff1673ffffffffffffffffffffffffffffffffffffffff16815260200190815260200160002060009054906101000a900473ffffffffffffffffffffffffffffffffffffffff1673ffffffffffffffffffffffffffffffffffffffff1673ffffffffffffffffffffffffffffffffffffffff16815260200190815260200160002060010154111515612565576040517f08c379a00000000000000000000000000000000000000000000000000000000081526004018080602001828103825260258152602001806143036025913960400191505060405180910390fd5b6000600d60003373ffffffffffffffffffffffffffffffffffffffff1673ffffffffffffffffffffffffffffffffffffffff16815260200190815260200160002060009054906101000a900473ffffffffffffffffffffffffffffffffffffffff1690506000600c60008373ffffffffffffffffffffffffffffffffffffffff1673ffffffffffffffffffffffffffffffffffffffff1681526020019081526020016000209050600e805490508410151561266b576040517f08c379a000000000000000000000000000000000000000000000000000000000815260040180806020018281038252602c815260200180614599602c913960400191505060405180910390fd5b6000600e8581548110151561267c57fe5b90600052602060002090600b0201905060038460ff161015156126ea576040517f08c379a00000000000000000000000000000000000000000000000000000000081526004018080602001828103825260318152602001806148be6031913960400191505060405180910390fd5b60008460ff1660028111156126fb57fe5b9050816003015461270a610b73565b10151515612763576040517f08c379a000000000000000000000000000000000000000000000000000000000815260040180806020018281038252603281526020018061479e6032913960400191505060405180910390fd5b6127708260030154611b62565b1515156127c8576040517f08c379a00000000000000000000000000000000000000000000000000000000081526004018080602001828103825260378152602001806144bd6037913960400191505060405180910390fd5b600060028111156127d557fe5b82600a0160008673ffffffffffffffffffffffffffffffffffffffff1673ffffffffffffffffffffffffffffffffffffffff16815260200190815260200160002060009054906101000a900460ff16600281111561282f57fe5b141515612887576040517f08c379a000000000000000000000000000000000000000000000000000000000815260040180806020018281038252603e81526020018061471f603e913960400191505060405180910390fd5b6001600281111561289457fe5b8160028111156128a057fe5b14806128c157506002808111156128b357fe5b8160028111156128bf57fe5b145b1515612918576040517f08c379a00000000000000000000000000000000000000000000000000000000081526004018080602001828103825260328152602001806143ff6032913960400191505060405180910390fd5b8160060160029054906101000a900460ff16151515612982576040517f08c379a000000000000000000000000000000000000000000000000000000000815260040180806020018281038252602e8152602001806147d0602e913960400191505060405180910390fd5b8082600a0160008673ffffffffffffffffffffffffffffffffffffffff1673ffffffffffffffffffffffffffffffffffffffff16815260200190815260200160002060006101000a81548160ff021916908360028111156129df57fe5b0217905550600160028111156129f157fe5b8160028111156129fd57fe5b1415612a6157612a248360020154846001015401836004015461400190919063ffffffff16565b82600401819055508260040154861115612a42578583600401819055505b8160090154600a541115612a5c57600a5482600901819055505b612aa4565b600280811115612a6d57fe5b816002811115612a7957fe5b1415612aa357612a9a8360010154836005015461400190919063ffffffff16565b82600501819055505b5b8373ffffffffffffffffffffffffffffffffffffffff163373ffffffffffffffffffffffffffffffffffffffff16877f29bf0061f2faa9daa482f061b116195432d435536d8af4ae6b3c5dd78223679b88604051808260ff1660ff16815260200191505060405180910390a4505050505050565b6000600e8054905082101515612b79576040517f08c379a000000000000000000000000000000000000000000000000000000000815260040180806020018281038252602d815260200180614490602d913960400191505060405180910390fd5b600e82815481101515612b8857fe5b90600052602060002090600b020160060160009054906101000a900460ff169050919050565b600960009054906101000a900473ffffffffffffffffffffffffffffffffffffffff1681565b60055481565b60005481565b600860009054906101000a900473ffffffffffffffffffffffffffffffffffffffff1681565b600e8054905081101515612c65576040517f08c379a00000000000000000000000000000000000000000000000000000000081526004018080602001828103825260278152602001806148616027913960400191505060405180910390fd5b6000600e82815481101515612c7657fe5b90600052602060002090600b020190508060010160009054906101000a900473ffffffffffffffffffffffffffffffffffffffff1673ffffffffffffffffffffffffffffffffffffffff163373ffffffffffffffffffffffffffffffffffffffff16141515612d30576040517f08c379a000000000000000000000000000000000000000000000000000000000815260040180806020018281038252602c81526020018061439d602c913960400191505060405180910390fd5b612d49600354826003015461400190919063ffffffff16565b612d51610b73565b101515612da9576040517f08c379a00000000000000000000000000000000000000000000000000000000081526004018080602001828103825260318152602001806144316031913960400191505060405180910390fd5b8060060160029054906101000a900460ff16151515612e13576040517f08c379a000000000000000000000000000000000000000000000000000000000815260040180806020018281038252603b81526020018061422f603b913960400191505060405180910390fd5b6000816007015490506000826007018190555060018260060160026101000a81548160ff021916908315150217905550600860009054906101000a900473ffffffffffffffffffffffffffffffffffffffff1673ffffffffffffffffffffffffffffffffffffffff1663a9059cbb8360010160009054906101000a900473ffffffffffffffffffffffffffffffffffffffff16836040518363ffffffff167c0100000000000000000000000000000000000000000000000000000000028152600401808373ffffffffffffffffffffffffffffffffffffffff1673ffffffffffffffffffffffffffffffffffffffff16815260200182815260200192505050602060405180830381600087803b158015612f2c57600080fd5b505af1158015612f40573d6000803e3d6000fd5b505050506040513d6020811015612f5657600080fd5b81019080805190602001909291905050501515612fbe576040517f08c379a000000000000000000000000000000000000000000000000000000000815260040180806020018281038252603f815260200180614666603f913960400191505060405180910390fd5b827fa749dd3df92cae4d106b3eadf60c0dffd3698de09c67ce58ce6f5d02eb82131333604051808273ffffffffffffffffffffffffffffffffffffffff1673ffffffffffffffffffffffffffffffffffffffff16815260200191505060405180910390a2505050565b600e8054905081101515613086576040517f08c379a000000000000000000000000000000000000000000000000000000000815260040180806020018281038252603181526020018061492c6031913960400191505060405180910390fd5b6000600e8281548110151561309757fe5b90600052602060002090600b020190506130d46002546130c6600154846003015461400190919063ffffffff16565b61400190919063ffffffff16565b6130dc610b73565b10151515613135576040517f08c379a000000000000000000000000000000000000000000000000000000000815260040180806020018281038252603f81526020018061435e603f913960400191505060405180910390fd5b600015158160060160009054906101000a900460ff1615151415156131a5576040517f08c379a000000000000000000000000000000000000000000000000000000000815260040180806020018281038252603d8152602001806148ef603d913960400191505060405180910390fd5b60008214806131f15750600e6131c5600184613fb590919063ffffffff16565b8154811015156131d157fe5b90600052602060002090600b020160060160009054906101000a900460ff165b1515613248576040517f08c379a000000000000000000000000000000000000000000000000000000000815260040180806020018281038252603d8152602001806145f5603d913960400191505060405180910390fd5b60018160060160006101000a81548160ff02191690831515021790555061327e8160020154600b54613fb590919063ffffffff16565b600b8190555060008160050154826004015411905081600901546132af600554600a5461403c90919063ffffffff16565b10156132ba57600090505b8080156132d657508160060160029054906101000a900460ff16155b15613a7c5760018260060160016101000a81548160ff021916908315150217905550600c60008360010160009054906101000a900473ffffffffffffffffffffffffffffffffffffffff1673ffffffffffffffffffffffffffffffffffffffff1673ffffffffffffffffffffffffffffffffffffffff16815260200190815260200160002060030160009054906101000a900460ff161561345d576133ee8260020154600c60008560010160009054906101000a900473ffffffffffffffffffffffffffffffffffffffff1673ffffffffffffffffffffffffffffffffffffffff1673ffffffffffffffffffffffffffffffffffffffff1681526020019081526020016000206001015461400190919063ffffffff16565b600c60008460010160009054906101000a900473ffffffffffffffffffffffffffffffffffffffff1673ffffffffffffffffffffffffffffffffffffffff1673ffffffffffffffffffffffffffffffffffffffff168152602001908152602001600020600101819055506138db565b600c6000600d60008560010160009054906101000a900473ffffffffffffffffffffffffffffffffffffffff1673ffffffffffffffffffffffffffffffffffffffff1673ffffffffffffffffffffffffffffffffffffffff16815260200190815260200160002060009054906101000a900473ffffffffffffffffffffffffffffffffffffffff1673ffffffffffffffffffffffffffffffffffffffff1673ffffffffffffffffffffffffffffffffffffffff16815260200190815260200160002060030160009054906101000a900460ff16156136be576000600d60008460010160009054906101000a900473ffffffffffffffffffffffffffffffffffffffff1673ffffffffffffffffffffffffffffffffffffffff1673ffffffffffffffffffffffffffffffffffffffff16815260200190815260200160002060009054906101000a900473ffffffffffffffffffffffffffffffffffffffff16905080600d60008373ffffffffffffffffffffffffffffffffffffffff1673ffffffffffffffffffffffffffffffffffffffff16815260200190815260200160002060006101000a81548173ffffffffffffffffffffffffffffffffffffffff021916908373ffffffffffffffffffffffffffffffffffffffff16021790555080600c60008373ffffffffffffffffffffffffffffffffffffffff1673ffffffffffffffffffffffffffffffffffffffff16815260200190815260200160002060000160006101000a81548173ffffffffffffffffffffffffffffffffffffffff021916908373ffffffffffffffffffffffffffffffffffffffff160217905550505b60a0604051908101604052808360010160009054906101000a900473ffffffffffffffffffffffffffffffffffffffff1673ffffffffffffffffffffffffffffffffffffffff16815260200183600201548152602001600081526020016001151581526020016000815250600c60008460010160009054906101000a900473ffffffffffffffffffffffffffffffffffffffff1673ffffffffffffffffffffffffffffffffffffffff1673ffffffffffffffffffffffffffffffffffffffff16815260200190815260200160002060008201518160000160006101000a81548173ffffffffffffffffffffffffffffffffffffffff021916908373ffffffffffffffffffffffffffffffffffffffff160217905550602082015181600101556040820151816002015560608201518160030160006101000a81548160ff021916908315150217905550608082015181600401559050508160010160009054906101000a900473ffffffffffffffffffffffffffffffffffffffff16600d60008460010160009054906101000a900473ffffffffffffffffffffffffffffffffffffffff1673ffffffffffffffffffffffffffffffffffffffff1673ffffffffffffffffffffffffffffffffffffffff16815260200190815260200160002060006101000a81548173ffffffffffffffffffffffffffffffffffffffff021916908373ffffffffffffffffffffffffffffffffffffffff1602179055505b6138f48260020154600a5461400190919063ffffffff16565b600a81905550600860009054906101000a900473ffffffffffffffffffffffffffffffffffffffff1673ffffffffffffffffffffffffffffffffffffffff1663a9059cbb600960009054906101000a900473ffffffffffffffffffffffffffffffffffffffff1684600701546040518363ffffffff167c0100000000000000000000000000000000000000000000000000000000028152600401808373ffffffffffffffffffffffffffffffffffffffff1673ffffffffffffffffffffffffffffffffffffffff16815260200182815260200192505050602060405180830381600087803b1580156139e557600080fd5b505af11580156139f9573d6000803e3d6000fd5b505050506040513d6020811015613a0f57600080fd5b81019080805190602001909291905050501515613a77576040517f08c379a000000000000000000000000000000000000000000000000000000000815260040180806020018281038252603d8152602001806147fe603d913960400191505060405180910390fd5b613bfc565b600860009054906101000a900473ffffffffffffffffffffffffffffffffffffffff1673ffffffffffffffffffffffffffffffffffffffff1663a9059cbb8360010160009054906101000a900473ffffffffffffffffffffffffffffffffffffffff1684600701546040518363ffffffff167c0100000000000000000000000000000000000000000000000000000000028152600401808373ffffffffffffffffffffffffffffffffffffffff1673ffffffffffffffffffffffffffffffffffffffff16815260200182815260200192505050602060405180830381600087803b158015613b6957600080fd5b505af1158015613b7d573d6000803e3d6000fd5b505050506040513d6020811015613b9357600080fd5b81019080805190602001909291905050501515613bfb576040517f08c379a000000000000000000000000000000000000000000000000000000000815260040180806020018281038252603c8152602001806141f3603c913960400191505060405180910390fd5b5b600860009054906101000a900473ffffffffffffffffffffffffffffffffffffffff1673ffffffffffffffffffffffffffffffffffffffff1663a9059cbb336006546040518363ffffffff167c0100000000000000000000000000000000000000000000000000000000028152600401808373ffffffffffffffffffffffffffffffffffffffff1673ffffffffffffffffffffffffffffffffffffffff16815260200182815260200192505050602060405180830381600087803b158015613cc357600080fd5b505af1158015613cd7573d6000803e3d6000fd5b505050506040513d6020811015613ced57600080fd5b81019080805190602001909291905050501515613d55576040517f08c379a00000000000000000000000000000000000000000000000000000000081526004018080602001828103825260488152602001806146d76048913960600191505060405180910390fd5b600860009054906101000a900473ffffffffffffffffffffffffffffffffffffffff1673ffffffffffffffffffffffffffffffffffffffff1663a9059cbb8360000160009054906101000a900473ffffffffffffffffffffffffffffffffffffffff16613dcf600654600454613fb590919063ffffffff16565b6040518363ffffffff167c0100000000000000000000000000000000000000000000000000000000028152600401808373ffffffffffffffffffffffffffffffffffffffff1673ffffffffffffffffffffffffffffffffffffffff16815260200182815260200192505050602060405180830381600087803b158015613e5457600080fd5b505af1158015613e68573d6000803e3d6000fd5b505050506040513d6020811015613e7e57600080fd5b81019080805190602001909291905050501515613ee6576040517f08c379a00000000000000000000000000000000000000000000000000000000081526004018080602001828103825260478152602001806144f46047913960600191505060405180910390fd5b8160000160009054906101000a900473ffffffffffffffffffffffffffffffffffffffff1673ffffffffffffffffffffffffffffffffffffffff168260010160009054906101000a900473ffffffffffffffffffffffffffffffffffffffff1673ffffffffffffffffffffffffffffffffffffffff16847f3f6fc303a82367bb4947244ba21c569a5ed2e870610f1a693366142309d7cbea85600701548660020154866040518084815260200183815260200182151515158152602001935050505060405180910390a4505050565b6000828211151515613fc657600080fd5b600082840390508091505092915050565b60008082111515613fe757600080fd5b60008284811515613ff457fe5b0490508091505092915050565b600080828401905083811015151561401857600080fd5b8091505092915050565b6000818310156140325781614034565b825b905092915050565b60008083141561404f5760009050614074565b6000828402905082848281151561406257fe5b0414151561406f57600080fd5b809150505b92915050565b61018060405190810160405280600073ffffffffffffffffffffffffffffffffffffffff168152602001600073ffffffffffffffffffffffffffffffffffffffff168152602001600081526020016000815260200160008152602001600081526020016000151581526020016000151581526020016000151581526020016000815260200160608152602001600081525090565b828054600181600116156101000203166002900490600052602060002090601f016020900481019282601f1061414f57805160ff191683800117855561417d565b8280016001018555821561417d579182015b8281111561417c578251825591602001919060010190614161565b5b50905061418a919061418e565b5090565b6141b091905b808211156141ac576000816000905550600101614194565b5090565b9056fe4d6f6c6f63683a3a7375626d697450726f706f73616c202d2070726f706f73616c206465706f73697420746f6b656e207472616e73666572206661696c65644d6f6c6f63683a3a70726f6365737350726f706f73616c202d206661696c696e6720766f746520746f6b656e207472616e73666572206661696c65644d6f6c6f63683a3a61626f7274202d2070726f706f73616c206d757374206e6f74206861766520616c7265616479206265656e2061626f727465644d6f6c6f63683a3a75706461746544656c65676174654b6579202d2063616e74206f7665727772697465206578697374696e67206d656d626572734d6f6c6f63683a3a6f6e6c794d656d626572202d206e6f742061206d656d6265724d6f6c6f63683a3a7261676571756974202d207769746864726177616c206f6620746f6b656e732066726f6d206775696c6442616e6b206661696c65644d6f6c6f63683a3a6f6e6c7944656c6567617465202d206e6f7420612064656c65676174654d6f6c6f63683a3a7375626d697450726f706f73616c202d207472696275746520746f6b656e207472616e73666572206661696c65644d6f6c6f63683a3a70726f6365737350726f706f73616c202d2070726f706f73616c206973206e6f7420726561647920746f2062652070726f6365737365644d6f6c6f63683a3a61626f7274202d206d73672e73656e646572206d757374206265206170706c6963616e744d6f6c6f63683a3a6765744d656d62657250726f706f73616c566f7465202d2070726f706f73616c20646f65736e27742065786973744d6f6c6f63683a3a7375626d6974566f7465202d20766f7465206d7573742062652065697468657220596573206f72204e6f4d6f6c6f63683a3a61626f7274202d2061626f72742077696e646f77206d757374206e6f742068617665207061737365644d6f6c6f63683a3a7375626d697450726f706f73616c202d206170706c6963616e742063616e6e6f7420626520304d6f6c6f63683a3a63616e5261676571756974202d2070726f706f73616c20646f6573206e6f742065786973744d6f6c6f63683a3a7375626d6974566f7465202d2070726f706f73616c20766f74696e6720706572696f642068617320657870697265644d6f6c6f63683a3a70726f6365737350726f706f73616c202d206661696c656420746f2072657475726e2070726f706f73616c206465706f73697420746f2070726f706f7365724d6f6c6f63683a3a7261676571756974202d2063616e7420726167657175697420756e74696c206869676865737420696e6465782070726f706f73616c206d656d62657220766f74656420594553206f6e2069732070726f6365737365644d6f6c6f63683a3a7375626d6974566f7465202d2070726f706f73616c20646f6573206e6f74206578697374617474656d7074696e6720746f2064656c6567617465206d6f726520736861726573207468616e20796f7520686176654d6f6c6f63683a3a70726f6365737350726f706f73616c202d2070726576696f75732070726f706f73616c206d7573742062652070726f6365737365644d6f6c6f63683a3a6765744d656d62657250726f706f73616c566f7465202d206d656d62657220646f65736e27742065786973744d6f6c6f63683a3a70726f6365737350726f706f73616c202d206661696c656420746f2072657475726e207472696275746520746f206170706c6963616e744d6f6c6f63683a3a7375626d697450726f706f73616c202d20746f6f206d616e7920736861726573207265717565737465644d6f6c6f63683a3a70726f6365737350726f706f73616c202d206661696c656420746f2073656e642070726f63657373696e672072657761726420746f206d73672e73656e6465724d6f6c6f63683a3a7375626d6974566f7465202d206d656d6265722068617320616c726561647920766f746564206f6e20746869732070726f706f73616c4d6f6c6f63683a3a75706461746544656c65676174654b6579202d2063616e74206f7665727772697465206578697374696e672064656c6567617465206b6579734d6f6c6f63683a3a7375626d6974566f7465202d20766f74696e6720706572696f6420686173206e6f7420737461727465644d6f6c6f63683a3a7375626d6974566f7465202d2070726f706f73616c20686173206265656e2061626f727465644d6f6c6f63683a3a70726f6365737350726f706f73616c202d20746f6b656e207472616e7366657220746f206775696c642062616e6b206661696c65644d6f6c6f63683a3a7261676571756974202d20696e73756666696369656e74207368617265734d6f6c6f63683a3a61626f7274202d2070726f706f73616c20646f6573206e6f742065786973744d6f6c6f63683a3a75706461746544656c65676174654b6579202d206e657744656c65676174654b65792063616e6e6f7420626520304d6f6c6f63683a3a7375626d6974566f7465202d2075696e74566f7465206d757374206265206c657373207468616e20334d6f6c6f63683a3a70726f6365737350726f706f73616c202d2070726f706f73616c2068617320616c7265616479206265656e2070726f6365737365644d6f6c6f63683a3a70726f6365737350726f706f73616c202d2070726f706f73616c20646f6573206e6f74206578697374a165627a7a7230582089b2188a5068615e30f90c082b9a100301758085d7646775064ce7d354e017380029608060405234801561001057600080fd5b506040516020806108f68339810180604052602081101561003057600080fd5b8101908080519060200190929190505050336000806101000a81548173ffffffffffffffffffffffffffffffffffffffff021916908373ffffffffffffffffffffffffffffffffffffffff1602179055506000809054906101000a900473ffffffffffffffffffffffffffffffffffffffff1673ffffffffffffffffffffffffffffffffffffffff16600073ffffffffffffffffffffffffffffffffffffffff167f8be0079c531659141344cd1fd0a4f28419497f9722a3daafe3b4186f6b6457e060405160405180910390a380600160006101000a81548173ffffffffffffffffffffffffffffffffffffffff021916908373ffffffffffffffffffffffffffffffffffffffff160217905550506107a88061014e6000396000f3fe608060405234801561001057600080fd5b506004361061007f576000357c010000000000000000000000000000000000000000000000000000000090048063715018a6146100845780638da5cb5b1461008e5780638f32d59b146100d8578063b5c5f672146100fa578063bab462591461016a578063f2fde38b146101b4575b600080fd5b61008c6101f8565b005b6100966102ca565b604051808273ffffffffffffffffffffffffffffffffffffffff1673ffffffffffffffffffffffffffffffffffffffff16815260200191505060405180910390f35b6100e06102f3565b604051808215151515815260200191505060405180910390f35b6101506004803603606081101561011057600080fd5b81019080803573ffffffffffffffffffffffffffffffffffffffff169060200190929190803590602001909291908035906020019092919050505061034a565b604051808215151515815260200191505060405180910390f35b6101726105d5565b604051808273ffffffffffffffffffffffffffffffffffffffff1673ffffffffffffffffffffffffffffffffffffffff16815260200191505060405180910390f35b6101f6600480360360208110156101ca57600080fd5b81019080803573ffffffffffffffffffffffffffffffffffffffff1690602001909291905050506105fb565b005b6102006102f3565b151561020b57600080fd5b600073ffffffffffffffffffffffffffffffffffffffff166000809054906101000a900473ffffffffffffffffffffffffffffffffffffffff1673ffffffffffffffffffffffffffffffffffffffff167f8be0079c531659141344cd1fd0a4f28419497f9722a3daafe3b4186f6b6457e060405160405180910390a360008060006101000a81548173ffffffffffffffffffffffffffffffffffffffff021916908373ffffffffffffffffffffffffffffffffffffffff160217905550565b60008060009054906101000a900473ffffffffffffffffffffffffffffffffffffffff16905090565b60008060009054906101000a900473ffffffffffffffffffffffffffffffffffffffff1673ffffffffffffffffffffffffffffffffffffffff163373ffffffffffffffffffffffffffffffffffffffff1614905090565b60006103546102f3565b151561035f57600080fd5b600061047b8361046d86600160009054906101000a900473ffffffffffffffffffffffffffffffffffffffff1673ffffffffffffffffffffffffffffffffffffffff166370a08231306040518263ffffffff167c0100000000000000000000000000000000000000000000000000000000028152600401808273ffffffffffffffffffffffffffffffffffffffff1673ffffffffffffffffffffffffffffffffffffffff16815260200191505060206040518083038186803b15801561042457600080fd5b505afa158015610438573d6000803e3d6000fd5b505050506040513d602081101561044e57600080fd5b810190808051906020019092919050505061061a90919063ffffffff16565b61065890919063ffffffff16565b90508473ffffffffffffffffffffffffffffffffffffffff167f7fcf532c15f0a6db0bd6d0e038bea71d30d808c7d98cb3bf7268a95bf5081b65826040518082815260200191505060405180910390a2600160009054906101000a900473ffffffffffffffffffffffffffffffffffffffff1673ffffffffffffffffffffffffffffffffffffffff1663a9059cbb86836040518363ffffffff167c0100000000000000000000000000000000000000000000000000000000028152600401808373ffffffffffffffffffffffffffffffffffffffff1673ffffffffffffffffffffffffffffffffffffffff16815260200182815260200192505050602060405180830381600087803b15801561059057600080fd5b505af11580156105a4573d6000803e3d6000fd5b505050506040513d60208110156105ba57600080fd5b81019080805190602001909291905050509150509392505050565b600160009054906101000a900473ffffffffffffffffffffffffffffffffffffffff1681565b6106036102f3565b151561060e57600080fd5b61061781610682565b50565b60008083141561062d5760009050610652565b6000828402905082848281151561064057fe5b0414151561064d57600080fd5b809150505b92915050565b6000808211151561066857600080fd5b6000828481151561067557fe5b0490508091505092915050565b600073ffffffffffffffffffffffffffffffffffffffff168173ffffffffffffffffffffffffffffffffffffffff16141515156106be57600080fd5b8073ffffffffffffffffffffffffffffffffffffffff166000809054906101000a900473ffffffffffffffffffffffffffffffffffffffff1673ffffffffffffffffffffffffffffffffffffffff167f8be0079c531659141344cd1fd0a4f28419497f9722a3daafe3b4186f6b6457e060405160405180910390a3806000806101000a81548173ffffffffffffffffffffffffffffffffffffffff021916908373ffffffffffffffffffffffffffffffffffffffff1602179055505056fea165627a7a72305820b815f98b3a9f8ae658001dfc5936656a39636f856130c996edee0efaedd57f0100294d6f6c6f63683a3a636f6e7374727563746f72202d205f61626f727457696e646f772063616e6e6f7420626520304d6f6c6f63683a3a636f6e7374727563746f72202d2073756d6d6f6e65722063616e6e6f7420626520304d6f6c6f63683a3a636f6e7374727563746f72202d205f766f74696e67506572696f644c656e6774682065786365656473206c696d69744d6f6c6f63683a3a636f6e7374727563746f72202d205f70726f706f73616c4465706f7369742063616e6e6f7420626520736d616c6c6572207468616e205f70726f63657373696e675265776172644d6f6c6f63683a3a636f6e7374727563746f72202d205f64696c7574696f6e426f756e642065786365656473206c696d69744d6f6c6f63683a3a636f6e7374727563746f72202d205f61626f727457696e646f77206d75737420626520736d616c6c6572207468616e206f7220657175616c20746f205f766f74696e67506572696f644c656e6774684d6f6c6f63683a3a636f6e7374727563746f72202d205f6772616365506572696f644c656e6774682065786365656473206c696d69744d6f6c6f63683a3a636f6e7374727563746f72202d205f766f74696e67506572696f644c656e6774682063616e6e6f7420626520304d6f6c6f63683a3a636f6e7374727563746f72202d205f706572696f644475726174696f6e2063616e6e6f7420626520304d6f6c6f63683a3a636f6e7374727563746f72202d205f617070726f766564546f6b656e2063616e6e6f7420626520304d6f6c6f63683a3a636f6e7374727563746f72202d205f64696c7574696f6e426f756e642063616e6e6f742062652030",
  "source": "pragma solidity 0.5.3;\n\nimport \"./oz/SafeMath.sol\";\nimport \"./oz/IERC20.sol\";\nimport \"./GuildBank.sol\";\n\ncontract Moloch {\n    using SafeMath for uint256;\n\n    /***************\n    GLOBAL CONSTANTS\n    ***************/\n    uint256 public periodDuration; // default = 17280 = 4.8 hours in seconds (5 periods per day)\n    uint256 public votingPeriodLength; // default = 35 periods (7 days)\n    uint256 public gracePeriodLength; // default = 35 periods (7 days)\n    uint256 public abortWindow; // default = 5 periods (1 day)\n    uint256 public proposalDeposit; // default = 10 ETH (~$1,000 worth of ETH at contract deployment)\n    uint256 public dilutionBound; // default = 3 - maximum multiplier a YES voter will be obligated to pay in case of mass ragequit\n    uint256 public processingReward; // default = 0.1 - amount of ETH to give to whoever processes a proposal\n    uint256 public summoningTime; // needed to determine the current period\n\n    IERC20 public approvedToken; // approved token contract reference; default = wETH\n    GuildBank public guildBank; // guild bank contract reference\n\n    // HARD-CODED LIMITS\n    // These numbers are quite arbitrary; they are small enough to avoid overflows when doing calculations\n    // with periods or shares, yet big enough to not limit reasonable use cases.\n    uint256 constant MAX_VOTING_PERIOD_LENGTH = 10**18; // maximum length of voting period\n    uint256 constant MAX_GRACE_PERIOD_LENGTH = 10**18; // maximum length of grace period\n    uint256 constant MAX_DILUTION_BOUND = 10**18; // maximum dilution bound\n    uint256 constant MAX_NUMBER_OF_SHARES = 10**18; // maximum number of shares that can be minted\n\n    /***************\n    EVENTS\n    ***************/\n    event SubmitProposal(uint256 proposalIndex, address indexed delegateKey, address indexed memberAddress, address indexed applicant, uint256 tokenTribute, uint256 sharesRequested);\n    event SubmitVote(uint256 indexed proposalIndex, address indexed delegateKey, address indexed memberAddress, uint8 uintVote);\n    event ProcessProposal(uint256 indexed proposalIndex, address indexed applicant, address indexed memberAddress, uint256 tokenTribute, uint256 sharesRequested, bool didPass);\n    event Ragequit(address indexed memberAddress, uint256 sharesToBurn);\n    event Abort(uint256 indexed proposalIndex, address applicantAddress);\n    event UpdateDelegateKey(address indexed memberAddress, address newDelegateKey);\n    event SummonComplete(address indexed summoner, uint256 shares);\n    event SharesDelegated(address indexed from, address indexed to, uint256 amount);\n    event SharesRetrieved(address indexed from, address indexed to, uint256 amount);\n\n    /******************\n    INTERNAL ACCOUNTING\n    ******************/\n    uint256 public totalShares = 0; // total shares across all members\n    uint256 public totalSharesRequested = 0; // total shares that have been requested in unprocessed proposals\n\n    enum Vote {\n        Null, // default value, counted as abstention\n        Yes,\n        No\n    }\n\n    struct Member {\n        address delegateKey; // the key responsible for submitting proposals and voting - defaults to member address unless updated\n        uint256 shares; // the # of shares assigned to this member\n        uint256 delegatedShares; // the # of shares delegated to this member by other members of the DAO \n        bool exists; // always true once a member has been created\n        uint256 highestIndexYesVote; // highest proposal index # on which the member voted YES\n    }\n\n    struct Proposal {\n        address proposer; // the member who submitted the proposal\n        address applicant; // the applicant who wishes to become a member - this key will be used for withdrawals\n        uint256 sharesRequested; // the # of shares the applicant is requesting\n        uint256 startingPeriod; // the period in which voting can start for this proposal\n        uint256 yesVotes; // the total number of YES votes for this proposal\n        uint256 noVotes; // the total number of NO votes for this proposal\n        bool processed; // true only if the proposal has been processed\n        bool didPass; // true only if the proposal passed\n        bool aborted; // true only if applicant calls \"abort\" fn before end of voting period\n        uint256 tokenTribute; // amount of tokens offered as tribute\n        string details; // proposal details - could be IPFS hash, plaintext, or JSON\n        uint256 maxTotalSharesAtYesVote; // the maximum # of total shares encountered at a yes vote on this proposal\n        mapping (address => Vote) votesByMember; // the votes on this proposal by each member\n    }\n\n    mapping (address => Member) public members;\n    mapping (address => address) public memberAddressByDelegateKey;\n    // mapping of shares delegated from one member to another delegatedShareMembers\n    Proposal[] public proposalQueue;\n\n    /********\n    MODIFIERS\n    ********/\n    modifier onlyMember {\n        require(members[msg.sender].shares > 0, \"Moloch::onlyMember - not a member\");\n        _;\n    }\n\n    modifier onlyDelegate {\n        require(members[memberAddressByDelegateKey[msg.sender]].shares > 0, \"Moloch::onlyDelegate - not a delegate\");\n        _;\n    }\n\n    /********\n    FUNCTIONS\n    ********/\n    constructor(\n        address summoner,\n        address _approvedToken,\n        uint256 _periodDuration,\n        uint256 _votingPeriodLength,\n        uint256 _gracePeriodLength,\n        uint256 _abortWindow,\n        uint256 _proposalDeposit,\n        uint256 _dilutionBound,\n        uint256 _processingReward\n    ) public {\n        require(summoner != address(0), \"Moloch::constructor - summoner cannot be 0\");\n        require(_approvedToken != address(0), \"Moloch::constructor - _approvedToken cannot be 0\");\n        require(_periodDuration > 0, \"Moloch::constructor - _periodDuration cannot be 0\");\n        require(_votingPeriodLength > 0, \"Moloch::constructor - _votingPeriodLength cannot be 0\");\n        require(_votingPeriodLength <= MAX_VOTING_PERIOD_LENGTH, \"Moloch::constructor - _votingPeriodLength exceeds limit\");\n        require(_gracePeriodLength <= MAX_GRACE_PERIOD_LENGTH, \"Moloch::constructor - _gracePeriodLength exceeds limit\");\n        require(_abortWindow > 0, \"Moloch::constructor - _abortWindow cannot be 0\");\n        require(_abortWindow <= _votingPeriodLength, \"Moloch::constructor - _abortWindow must be smaller than or equal to _votingPeriodLength\");\n        require(_dilutionBound > 0, \"Moloch::constructor - _dilutionBound cannot be 0\");\n        require(_dilutionBound <= MAX_DILUTION_BOUND, \"Moloch::constructor - _dilutionBound exceeds limit\");\n        require(_proposalDeposit >= _processingReward, \"Moloch::constructor - _proposalDeposit cannot be smaller than _processingReward\");\n\n        approvedToken = IERC20(_approvedToken);\n\n        guildBank = new GuildBank(_approvedToken);\n\n        periodDuration = _periodDuration;\n        votingPeriodLength = _votingPeriodLength;\n        gracePeriodLength = _gracePeriodLength;\n        abortWindow = _abortWindow;\n        proposalDeposit = _proposalDeposit;\n        dilutionBound = _dilutionBound;\n        processingReward = _processingReward;\n\n        summoningTime = now;\n\n        members[summoner] = Member(summoner, 1, 0, true, 0);\n        memberAddressByDelegateKey[summoner] = summoner;\n        totalShares = 1;\n\n        emit SummonComplete(summoner, 1);\n    }\n\n    /*****************\n    PROPOSAL FUNCTIONS\n    *****************/\n\n    function submitProposal(\n        address applicant,\n        uint256 tokenTribute,\n        uint256 sharesRequested,\n        string memory details\n    )\n        public\n        onlyDelegate\n    {\n        require(applicant != address(0), \"Moloch::submitProposal - applicant cannot be 0\");\n\n        // Make sure we won't run into overflows when doing calculations with shares.\n        // Note that totalShares + totalSharesRequested + sharesRequested is an upper bound\n        // on the number of shares that can exist until this proposal has been processed.\n        require(totalShares.add(totalSharesRequested).add(sharesRequested) <= MAX_NUMBER_OF_SHARES, \"Moloch::submitProposal - too many shares requested\");\n\n        totalSharesRequested = totalSharesRequested.add(sharesRequested);\n\n        address memberAddress = memberAddressByDelegateKey[msg.sender];\n\n        // collect proposal deposit from proposer and store it in the Moloch until the proposal is processed\n        require(approvedToken.transferFrom(msg.sender, address(this), proposalDeposit), \"Moloch::submitProposal - proposal deposit token transfer failed\");\n\n        // collect tribute from applicant and store it in the Moloch until the proposal is processed\n        require(approvedToken.transferFrom(applicant, address(this), tokenTribute), \"Moloch::submitProposal - tribute token transfer failed\");\n\n        // compute startingPeriod for proposal\n        uint256 startingPeriod = max(\n            getCurrentPeriod(),\n            proposalQueue.length == 0 ? 0 : proposalQueue[proposalQueue.length.sub(1)].startingPeriod\n        ).add(1);\n\n        // create proposal ...\n        Proposal memory proposal = Proposal({\n            proposer: memberAddress,\n            applicant: applicant,\n            sharesRequested: sharesRequested,\n            startingPeriod: startingPeriod,\n            yesVotes: 0,\n            noVotes: 0,\n            processed: false,\n            didPass: false,\n            aborted: false,\n            tokenTribute: tokenTribute,\n            details: details,\n            maxTotalSharesAtYesVote: 0\n        });\n\n        // ... and append it to the queue\n        proposalQueue.push(proposal);\n\n        uint256 proposalIndex = proposalQueue.length.sub(1);\n        emit SubmitProposal(proposalIndex, msg.sender, memberAddress, applicant, tokenTribute, sharesRequested);\n    }\n\n    function submitVote(uint256 proposalIndex, uint8 uintVote) public onlyDelegate {\n        address memberAddress = memberAddressByDelegateKey[msg.sender];\n        Member storage member = members[memberAddress];\n\n        require(proposalIndex < proposalQueue.length, \"Moloch::submitVote - proposal does not exist\");\n        Proposal storage proposal = proposalQueue[proposalIndex];\n\n        require(uintVote < 3, \"Moloch::submitVote - uintVote must be less than 3\");\n        Vote vote = Vote(uintVote);\n\n        require(getCurrentPeriod() >= proposal.startingPeriod, \"Moloch::submitVote - voting period has not started\");\n        require(!hasVotingPeriodExpired(proposal.startingPeriod), \"Moloch::submitVote - proposal voting period has expired\");\n        require(proposal.votesByMember[memberAddress] == Vote.Null, \"Moloch::submitVote - member has already voted on this proposal\");\n        require(vote == Vote.Yes || vote == Vote.No, \"Moloch::submitVote - vote must be either Yes or No\");\n        require(!proposal.aborted, \"Moloch::submitVote - proposal has been aborted\");\n\n        // store vote\n        proposal.votesByMember[memberAddress] = vote;\n\n        // count vote\n        if (vote == Vote.Yes) {\n            proposal.yesVotes = proposal.yesVotes.add(member.shares + member.delegatedShares);\n\n            // set highest index (latest) yes vote - must be processed for member to ragequit\n            if (proposalIndex > member.highestIndexYesVote) {\n                member.highestIndexYesVote = proposalIndex;\n            }\n\n            // set maximum of total shares encountered at a yes vote - used to bound dilution for yes voters\n            if (totalShares > proposal.maxTotalSharesAtYesVote) {\n                proposal.maxTotalSharesAtYesVote = totalShares;\n            }\n\n        } else if (vote == Vote.No) {\n            proposal.noVotes = proposal.noVotes.add(member.shares);\n        }\n\n        emit SubmitVote(proposalIndex, msg.sender, memberAddress, uintVote);\n    }\n\n    function processProposal(uint256 proposalIndex) public {\n        require(proposalIndex < proposalQueue.length, \"Moloch::processProposal - proposal does not exist\");\n        Proposal storage proposal = proposalQueue[proposalIndex];\n\n        require(getCurrentPeriod() >= proposal.startingPeriod.add(votingPeriodLength).add(gracePeriodLength), \"Moloch::processProposal - proposal is not ready to be processed\");\n        require(proposal.processed == false, \"Moloch::processProposal - proposal has already been processed\");\n        require(proposalIndex == 0 || proposalQueue[proposalIndex.sub(1)].processed, \"Moloch::processProposal - previous proposal must be processed\");\n\n        proposal.processed = true;\n        totalSharesRequested = totalSharesRequested.sub(proposal.sharesRequested);\n\n        bool didPass = proposal.yesVotes > proposal.noVotes;\n\n        // Make the proposal fail if the dilutionBound is exceeded\n        if (totalShares.mul(dilutionBound) < proposal.maxTotalSharesAtYesVote) {\n            didPass = false;\n        }\n\n        // PROPOSAL PASSED\n        if (didPass && !proposal.aborted) {\n\n            proposal.didPass = true;\n\n            // if the applicant is already a member, add to their existing shares\n            if (members[proposal.applicant].exists) {\n                members[proposal.applicant].shares = members[proposal.applicant].shares.add(proposal.sharesRequested);\n\n            // the applicant is a new member, create a new record for them\n            } else {\n                // if the applicant address is already taken by a member's delegateKey, reset it to their member address\n                if (members[memberAddressByDelegateKey[proposal.applicant]].exists) {\n                    address memberToOverride = memberAddressByDelegateKey[proposal.applicant];\n                    memberAddressByDelegateKey[memberToOverride] = memberToOverride;\n                    members[memberToOverride].delegateKey = memberToOverride;\n                }\n\n                // use applicant address as delegateKey by default\n                members[proposal.applicant] = Member(proposal.applicant, proposal.sharesRequested, 0, true, 0);\n                memberAddressByDelegateKey[proposal.applicant] = proposal.applicant;\n            }\n\n            // mint new shares\n            totalShares = totalShares.add(proposal.sharesRequested);\n\n            // transfer tokens to guild bank\n            require(\n                approvedToken.transfer(address(guildBank), proposal.tokenTribute),\n                \"Moloch::processProposal - token transfer to guild bank failed\"\n            );\n\n        // PROPOSAL FAILED OR ABORTED\n        } else {\n            // return all tokens to the applicant\n            require(\n                approvedToken.transfer(proposal.applicant, proposal.tokenTribute),\n                \"Moloch::processProposal - failing vote token transfer failed\"\n            );\n        }\n\n        // send msg.sender the processingReward\n        require(\n            approvedToken.transfer(msg.sender, processingReward),\n            \"Moloch::processProposal - failed to send processing reward to msg.sender\"\n        );\n\n        // return deposit to proposer (subtract processing reward)\n        require(\n            approvedToken.transfer(proposal.proposer, proposalDeposit.sub(processingReward)),\n            \"Moloch::processProposal - failed to return proposal deposit to proposer\"\n        );\n\n        emit ProcessProposal(\n            proposalIndex,\n            proposal.applicant,\n            proposal.proposer,\n            proposal.tokenTribute,\n            proposal.sharesRequested,\n            didPass\n        );\n    }\n\n    function ragequit(uint256 sharesToBurn) public onlyMember {\n        uint256 initialTotalShares = totalShares;\n\n        Member storage member = members[msg.sender];\n\n        require(member.shares >= sharesToBurn, \"Moloch::ragequit - insufficient shares\");\n\n        require(canRagequit(member.highestIndexYesVote), \"Moloch::ragequit - cant ragequit until highest index proposal member voted YES on is processed\");\n\n        // burn shares\n        member.shares = member.shares.sub(sharesToBurn);\n        totalShares = totalShares.sub(sharesToBurn);\n\n        // instruct guildBank to transfer fair share of tokens to the ragequitter\n        require(\n            guildBank.withdraw(msg.sender, sharesToBurn, initialTotalShares),\n            \"Moloch::ragequit - withdrawal of tokens from guildBank failed\"\n        );\n\n        emit Ragequit(msg.sender, sharesToBurn);\n    }\n\n    function abort(uint256 proposalIndex) public {\n        require(proposalIndex < proposalQueue.length, \"Moloch::abort - proposal does not exist\");\n        Proposal storage proposal = proposalQueue[proposalIndex];\n\n        require(msg.sender == proposal.applicant, \"Moloch::abort - msg.sender must be applicant\");\n        require(getCurrentPeriod() < proposal.startingPeriod.add(abortWindow), \"Moloch::abort - abort window must not have passed\");\n        require(!proposal.aborted, \"Moloch::abort - proposal must not have already been aborted\");\n\n        uint256 tokensToAbort = proposal.tokenTribute;\n        proposal.tokenTribute = 0;\n        proposal.aborted = true;\n\n        // return all tokens to the applicant\n        require(\n            approvedToken.transfer(proposal.applicant, tokensToAbort),\n            \"Moloch::processProposal - failed to return tribute to applicant\"\n        );\n\n        emit Abort(proposalIndex, msg.sender);\n    }\n\n    function updateDelegateKey(address newDelegateKey) public onlyMember {\n        require(newDelegateKey != address(0), \"Moloch::updateDelegateKey - newDelegateKey cannot be 0\");\n\n        // skip checks if member is setting the delegate key to their member address\n        if (newDelegateKey != msg.sender) {\n            require(!members[newDelegateKey].exists, \"Moloch::updateDelegateKey - cant overwrite existing members\");\n            require(!members[memberAddressByDelegateKey[newDelegateKey]].exists, \"Moloch::updateDelegateKey - cant overwrite existing delegate keys\");\n        }\n\n        Member storage member = members[msg.sender];\n        memberAddressByDelegateKey[member.delegateKey] = address(0);\n        memberAddressByDelegateKey[newDelegateKey] = msg.sender;\n        member.delegateKey = newDelegateKey;\n\n        emit UpdateDelegateKey(msg.sender, newDelegateKey);\n    }\n\n    /*************************\n    SHARE DELEGATION FUNCTIONS\n    **************************/\n\n    function delegateShares(address delegateTo, uint256 sharesToDelegate) public onlyDelegate {\n        // update mapping in line 82 \n        require(sharesToDelegate<=members[msg.sender].shares, \"attempting to delegate more shares than you have\");  \n        members[msg.sender].shares.sub(sharesToDelegate);\n        members[delegateTo].delegatedShares.add(sharesToDelegate);\n        emit SharesDelegated(msg.sender, delegateTo, sharesToDelegate); \n    } \n\n    function retrieveShares(address retrieveFrom, uint256 sharesToRetrieve) public onlyDelegate {\n        // require sharesToRetrieve <= amount shared in mapping sharesToRetrieve line 82 \n        members[retrieveFrom].delegatedShares.sub(sharesToRetrieve);\n        members[msg.sender].shares.add(sharesToRetrieve); \n        emit SharesRetrieved(retrieveFrom, msg.sender, sharesToRetrieve); \n    }\n\n    /***************\n    GETTER FUNCTIONS\n    ***************/\n\n    function max(uint256 x, uint256 y) internal pure returns (uint256) {\n        return x >= y ? x : y;\n    }\n\n    function getCurrentPeriod() public view returns (uint256) {\n        return now.sub(summoningTime).div(periodDuration);\n    }\n\n    function getProposalQueueLength() public view returns (uint256) {\n        return proposalQueue.length;\n    }\n\n    // can only ragequit if the latest proposal you voted YES on has been processed\n    function canRagequit(uint256 highestIndexYesVote) public view returns (bool) {\n        require(highestIndexYesVote < proposalQueue.length, \"Moloch::canRagequit - proposal does not exist\");\n        return proposalQueue[highestIndexYesVote].processed;\n    }\n\n    function hasVotingPeriodExpired(uint256 startingPeriod) public view returns (bool) {\n        return getCurrentPeriod() >= startingPeriod.add(votingPeriodLength);\n    }\n\n    function getMemberProposalVote(address memberAddress, uint256 proposalIndex) public view returns (Vote) {\n        require(members[memberAddress].exists, \"Moloch::getMemberProposalVote - member doesn't exist\");\n        require(proposalIndex < proposalQueue.length, \"Moloch::getMemberProposalVote - proposal doesn't exist\");\n        return proposalQueue[proposalIndex].votesByMember[memberAddress];\n    }\n}\n",
  "sourcePath": "/home/mx/Dev/n2p/moloch/moloch/contracts/Moloch.sol",
  "compiler": {
    "name": "solc",
    "version": "0.5.3+commit.10d17f24.Emscripten.clang"
  },
  "schemaVersion": "3.0.6",
  "updatedAt": "2019-04-24T18:54:24.166Z",
  "devdoc": {
    "methods": {}
  },
  "userdoc": {
    "methods": {
      "constructor": "****** FUNCTIONS*******",
      "delegateShares(address,uint256)": {
        "notice": "*********************** SHARE DELEGATION FUNCTIONS*************************"
      },
      "submitProposal(address,uint256,uint256,string)": {
        "notice": "*************** PROPOSAL FUNCTIONS****************"
      }
    }
  }
}